:100000000C9462000C948A000C948A000C948A0070
:100010000C948A000C948A000C948A000C948A0038
:100020000C948A000C948A000C948A000C948A0028
:100030000C948A000C948A000C948A000C948A0018
:100040000C94FF030C948A000C94CD030C94A7032A
:100050000C948A000C948A000C948A000C948A00F8
:100060000C948A000C948A000000000024002700F1
:100070002A0000000000250028002B0000000000DE
:1000800023002600290004040404040404040202DA
:100090000202020203030303030301020408102007
:1000A0004080010204081020010204081020000012
:1000B0000008000201000003040700000000000027
:1000C0000000830411241FBECFEFD8E0DEBFCDBFF8
:1000D00012E0A0E0B1E0E8E6F5E102C005900D9283
:1000E000A631B107D9F724E0A6E1B2E001C01D9224
:1000F000AC34B207E1F710E0C2E6D0E004C02197CB
:10010000FE010E94AC0AC136D107C9F70E94CF0593
:100110000C94B20A0C940000AF92BF92CF92DF927F
:10012000EF92FF920F931F93CF93DF936C017B01AC
:100130008B01040F151FEB015E01AE18BF08C0173D
:10014000D10759F06991D601ED91FC910190F081B0
:10015000E02DC6010995892B79F7C501DF91CF9173
:100160001F910F91FF90EF90DF90CF90BF90AF90D5
:100170000895FC01538D448D252F30E0842F90E0AD
:10018000821B930B541710F0CF9608950197089592
:10019000FC01918D828D981761F0A28DAE0FBF2F5B
:1001A000B11D5D968C91928D9F5F9F73928F90E0B1
:1001B00008958FEF9FEF0895FC01918D828D981720
:1001C00031F0828DE80FF11D858D90E008958FEF5D
:1001D0009FEF0895FC01918D228D892F90E0805C26
:1001E0009F4F821B91098F73992708958BE392E0AB
:1001F0000E94EA0021E0892B09F420E0822F089573
:1002000080E090E0892B29F00E94F60081110C9487
:1002100000000895FC01A48DA80FB92FB11DA35AA9
:10022000BF4F2C91848D90E001968F739927848F16
:10023000A689B7892C93A089B1898C918370806439
:100240008C93938D848D981306C00288F389E02DDA
:1002500080818F7D80830895EF92FF920F931F938B
:10026000CF93DF93EC0181E0888F9B8D8C8D981369
:100270001AC0E889F989808185FF15C09FB7F89475
:10028000EE89FF896083E889F989808183708064C1
:1002900080839FBF81E090E0DF91CF911F910F910C
:1002A000FF90EF900895F62E0B8D10E00F5F1F4F1B
:1002B0000F731127E02E8C8D8E110CC00FB607FC2A
:1002C000FACFE889F989808185FFF5CFCE010E94B8
:1002D0000A01F1CFEB8DEC0FFD2FF11DE35AFF4F1B
:1002E000F0829FB7F8940B8FEA89FB898081806246
:1002F000CFCFCF93DF93EC01888D8823B9F0AA8903
:10030000BB89E889F9898C9185FD03C0808186FDD0
:100310000DC00FB607FCF7CF8C9185FFF2CF80811F
:1003200085FFEDCFCE010E940A01E9CFDF91CF9189
:100330000895833081F028F4813099F08230A9F05B
:1003400008958730A9F08830C9F08430B1F48091E5
:1003500080008F7D03C0809180008F778093800024
:10036000089584B58F7784BD089584B58F7DFBCFC4
:100370008091B0008F778093B00008958091B00095
:100380008F7DF9CFCF93DF93282F30E0F901E2552D
:10039000FF4F8491F901E656FF4FD491F901EA57D6
:1003A000FF4FC491CC23A1F081110E949901EC2F41
:1003B000F0E0EE0FFF1FE458FF4FA591B491EC91D0
:1003C000ED2381E090E009F480E0DF91CF91089582
:1003D00080E090E0FACF1F93CF93DF93282F30E097
:1003E000F901E255FF4F8491F901E656FF4FD49190
:1003F000F901EA57FF4FC491CC23A9F0162F8111C0
:100400000E949901EC2FF0E0EE0FFF1FEE58FF4F16
:10041000A591B4918FB7F894EC91111108C0D095C3
:10042000DE23DC938FBFDF91CF911F910895DE2BE8
:10043000F8CF482F50E0FA01E656FF4F9491FA01A9
:10044000EA57FF4F2491222399F030E0220F331F07
:10045000F901E859FF4FA591B491F901EE58FF4F0A
:10046000259134912FB7F894EC91E92BEC932FBFA1
:100470006115710519F460E00C94EB016F3F710593
:1004800011F461E0F9CFFA01E255FF4FE491E33056
:1004900019F140F4E130B1F0E230C9F06038710593
:1004A00084F7E9CFE73011F1E83041F1E430B1F7FA
:1004B0008091800080628093800070938B006093B5
:1004C0008A00089584B5806884BD67BD089584B5A9
:1004D000806284BD68BD08958091800080688093AB
:1004E0008000709389006093880008958091B00027
:1004F00080688093B0006093B30008958091B0004D
:1005000080628093B0006093B40008953FB7F89480
:1005100080911B0290911C02A0911D02B0911E02BD
:1005200026B5A89B05C02F3F19F00196A11DB11D4E
:100530003FBFBA2FA92F982F8827BC01CD01620F8A
:10054000711D811D911D42E0660F771F881F991F45
:100550004A95D1F708958F929F92AF92BF92CF9212
:10056000DF92EF92FF924B015C010E9486026B01C9
:100570007C010E9486026C197D098E099F09683EE4
:10058000734081059105A8F321E0821A9108A10822
:10059000B10888EEC80E83E0D81EE11CF11C81145E
:1005A0009104A104B10429F7FF90EF90DF90CF9060
:1005B000BF90AF909F908F9008959B012A5F3F4F0F
:1005C000FB014191BF01FC014193CF016217730709
:1005D000B9F70895CF93DF93EC0189818A838881ED
:1005E0000E94C20121E0009709F420E02983892BB1
:1005F00021F48A81DF91CF91089580E0FBCFFC0147
:1006000080810E94C20121E0892B09F020E0822F25
:100610000895CF93DF93FC0180818E3008F08E50D7
:100620008770806480937C0080917A0080648093DE
:100630007A0080917A0086FDFCCF2091780030917D
:100640007900818190E0DF01A80FB91F43E0369562
:1006500027954A95E1F712962C9301966BE070E08E
:100660000E94840A8183858586879F012E5F3F4F84
:100670008AE090E0D901AD01421B530B481759079E
:100680004CF44D915C915417B0F7ED0121975883CC
:100690004C93F1CF019771F787819685482F491BBD
:1006A000550B9A0157FF03C031952195310922302E
:1006B000310524F4882311F08F3709F48587DF9101
:1006C000CF910895FC0162838181882321F070E03D
:1006D00080810C9419020895FC01118270E060E0A1
:1006E00080810C941902FC0181E08183628170E0B9
:1006F00080810C941902FF920F931F93CF93DF9385
:10070000F62E282F30E0A5E0B0E00E94750A2FE712
:1007100030E040E050E00E94210A022FCAE4D3E01A
:1007200010E0CE01011780F00E9473036F2DCE01FF
:100730000E9462031F5F2C96163099F7DF91CF91CC
:100740001F910F91FF9008950E946C03F3CF1F92A9
:100750000F920FB60F9211242F933F934F935F93F5
:100760006F937F938F939F93AF93BF93EF93FF9379
:100770008BE392E00E940A01FF91EF91BF91AF914C
:100780009F918F917F916F915F914F913F912F91A9
:100790000F900FBE0F901F9018951F920F920FB6DB
:1007A0000F9211242F938F939F93EF93FF93E091D8
:1007B0004B02F0914C028081E0915102F091520283
:1007C00082FD1BC09081809154028F5F8F732091B6
:1007D0005502821741F0E0915402F0E0E55CFD4FD4
:1007E000958F80935402FF91EF919F918F912F915C
:1007F0000F900FBE0F901F9018958081F4CF1F921D
:100800000F920FB60F9211242F933F938F939F93C4
:10081000AF93BF938091170290911802A091190293
:10082000B0911A023091160223E0230F2D3758F5AC
:100830000196A11DB11D209316028093170290937B
:100840001802A0931902B0931A0280911B02909192
:100850001C02A0911D02B0911E020196A11DB11DA6
:1008600080931B0290931C02A0931D02B0931E0262
:10087000BF91AF919F918F913F912F910F900FBE9C
:100880000F901F90189526E8230F0296A11DB11D09
:10089000D2CFCF93DF93FC01608381E08183828399
:1008A00070E0FB01E656FF4F24916A577F4FFB0132
:1008B00084918823C1F090E0880F991FFC01E859CA
:1008C000FF4FC591D491FC01EE58FF4FA591B49113
:1008D0009FB7F8943881822F809583238883EC9189
:1008E000E22BEC939FBFDF91CF910895FC016083D1
:1008F000118215861686DC0112963D961D92AE1762
:10090000BF07E1F70895CF93EBE3F2E01382128281
:1009100088EE93E0A0E0B0E084839583A683B7835C
:1009200087E092E09183808385EC90E095878487CF
:1009300084EC90E09787868780EC90E0918B808BA9
:1009400081EC90E0938B828B82EC90E0958B848B92
:1009500086EC90E0978B868B118E128E138E148E00
:10096000E0E4F4E083E08083CEE1C283118270E0B2
:1009700060E00E941902E4E3F4E085E08083C28332
:10098000118270E060E00E941902E8E2F4E086E083
:100990008083C283118270E060E00E941902ECE162
:1009A000F4E089E08083C283118270E060E00E94FD
:1009B0001902E0E1F4E08AE08083C283118270E0F2
:1009C00060E00E941902E4E0F4E08BE08083C283DF
:1009D000118270E060E00E94190262E081E094E020
:1009E0000E94490468E08EEF93E00E94490464E0AD
:1009F0008BEF93E00E9449046CE088EF93E00E9443
:100A0000490467E085EF93E00E9449046DE082EFBE
:100A100093E00E9449046EE082EE93E00E94760427
:100A200061E182ED93E00E9476046FE082EC93E056
:100A30000E94760462E182EB93E00E94760460E11A
:100A400082EA93E00E94760463E182E993E00E94E7
:100A500076048CE0E0E4F4E0AAE4B3E001900D92C7
:100A60008A95E1F78CE0E4E3F4E0A6E5B3E00190D9
:100A70000D928A95E1F78CE0E8E2F4E0A2E6B3E0BB
:100A800001900D928A95E1F78CE0ECE1F4E0AEE69E
:100A9000B3E001900D928A95E1F78CE0E0E1F4E09B
:100AA000AAE7B3E001900D928A95E1F78CE0E4E0CB
:100AB000F4E0A6E8B3E001900D928A95E1F7E8E34F
:100AC000F3E08091010490910204A09103048083DB
:100AD0009183A2838091FE039091FF03A091000473
:100AE00083839483A5838091FB039091FC03A09161
:100AF000FD0386839783A0878091F8039091F90383
:100B0000A091FA0381879287A3878091F503909142
:100B1000F603A091F70384879587A6878091F20357
:100B20009091F303A091F4038787908BA18B80E1D0
:100B3000E2EEF3E0A8EDB2E001900D928A95E1F7C4
:100B400080E1E2EDF3E0A8EEB2E001900D928A952B
:100B5000E1F780E1E2ECF3E0A8EFB2E001900D9262
:100B60008A95E1F780E1E2EBF3E0A8E0B3E00190E1
:100B70000D928A95E1F780E1E2EAF3E0A8E1B3E0C3
:100B800001900D928A95E1F780E1E2E9F3E0A8E2B5
:100B9000B3E001900D928A95E1F7CF910895CF933C
:100BA000DF93CDB7DEB72A970FB6F894DEBF0FBE3E
:100BB000CDBF789484B5826084BD84B5816084BDE6
:100BC00085B5826085BD85B5816085BD80916E00EB
:100BD000816080936E00109281008091810082601C
:100BE0008093810080918100816080938100809159
:100BF00080008160809380008091B1008460809348
:100C0000B1008091B00081608093B00080917A0043
:100C1000846080937A0080917A00826080937A0069
:100C200080917A00816080937A0080917A00806858
:100C300080937A001092C10064E670E080E090E05A
:100C40000E94AB02E0914B02F0914C0282E0808363
:100C5000E0914702F09148021082E0914902F09140
:100C60004A028FE3808310925302E0914F02F09189
:100C7000500286E08083E0914D02F0914E02808127
:100C800080618083E0914D02F0914E028081886006
:100C90008083E0914D02F0914E02808180688083D4
:100CA000E0914D02F0914E0280818F7D80838AE435
:100CB00093E00E94730386E893E00E94730360E56B
:100CC00070E080E090E00E94AB028AE493E00E9432
:100CD0006C0386E893E00E946C0386E593E00E9433
:100CE00073038AE793E00E94730360E570E080E09D
:100CF00090E00E94AB0286E593E00E946C038AE7D5
:100D000093E00E946C0382E693E00E9473038EE6F8
:100D100093E00E94730360E570E080E090E00E9441
:100D2000AB0282E693E00E946C038EE693E00E94A1
:100D30006C038AE493E00E94730386E893E00E94C8
:100D4000730362E370E080E090E00E94AB028AE40B
:100D500093E00E946C0386E893E00E946C0386E5B2
:100D600093E00E9473038AE793E00E94730362E3B7
:100D700070E080E090E00E94AB0286E593E00E9484
:100D80006C038AE793E00E946C0382E693E00E9482
:100D900073038EE693E00E94730362E370E080E0E9
:100DA00090E00E94AB0282E693E00E946C038EE624
:100DB00093E00E946C0358E3E52E53E0F52ED12C0E
:100DC000C12C1C2DF7018181828380810E94C20188
:100DD00021E0009709F420E0F7012183892BE9F055
:100DE000FFEFCF1ADF0A23E0E20EF11C86E0C816FF
:100DF000D10439F76CE071E08BE292E00E94DD02F1
:100E000066E071E085E292E00E94DD0260E071E060
:100E10008FE192E00E94DD0231C0133009F496C1E7
:100E20000CF061C1113009F473C1123009F47FC1B3
:100E300068E771E08BE292E00E94DD0262E771E018
:100E400085E292E00E94DD026CE671E08FE192E0C3
:100E50000E94DD028CE08C9D80018D9D100D11247F
:100E6000065B1C4FC8010E94730368E572E080E0D6
:100E700090E00E94AB02C8010E946C0310923802FD
:100E80001092310287E08093320280933302809384
:100E900034028093350280933602809337022224F5
:100EA0002A94312C11E081E094E00E94FF0281112C
:100EB0006BC100E08BEF93E00E94FF028823A1F05A
:100EC00088EF93E00E94FF02F82E882369F082E900
:100ED00093E00E94090380919F03809339026091FF
:100EE000FE010E947B030F2D85EF93E00E94FF021D
:100EF00081115FC1011173C181E094E00E94EA0297
:100F0000882309F482C11092380287E0809332026C
:100F100080933302809334028093350280933602AB
:100F20008093370288ED92E00E94090388EE92E0F8
:100F30000E94090388EF92E00E94090388E093E091
:100F40000E94090388E193E00E94090388E293E08C
:100F50000E9409038091E50289838091F5028A83CA
:100F6000809105038B83809115038C8380912503E9
:100F70008D83809135038E8338ED832E32E0932E5E
:100F800098868F82B12CA12C0A2DEF81F88595854A
:100F90008685981709F478C080913802833010F064
:100FA00000913102F0913902F987C0903A02E1E0F4
:100FB000F0E0EC0FFD1FEA0DFB1D20812A874C2C71
:100FC0000C2C000C550866087708DD24C1940CF43D
:100FD000D0940D2C000CEE08FF08C414D504E604D0
:100FE000F7048CF44C185D086E087F0841F00E94ED
:100FF000C909A30192010E94210A2B013C01C40CE2
:10100000D51CE61CF71C8A85E82FF0E0DF01A2580A
:10101000BE4F8C912985289FC0011124B1010E94E7
:10102000840A9B01A1018985481B51094E9FC0017B
:101030004F9F900D5E9F900D1124B1010E94840A74
:10104000260F371F7901EC0CF11CC7FCFA9490E8CD
:10105000E916F1041CF02FE7E22EF12CF501EE5C0D
:10106000FD4FD080602F606B8BE392E00E942C01DB
:101070006D2D8BE392E00E942C01B701F7FC60E03C
:101080008BE392E00E942C01EFEFAE1ABE0A8F8133
:101090009885409698878F8396E0A916B10409F049
:1010A00073CFD0903802E2E0ED1508F00AC1C0908D
:1010B000FE01B09031029AE4E92E93E0F92E00E0AF
:1010C0006C2DB01619F0D01214C161E0C7010E9456
:1010D0006203C7010E9473030F5FFCE0EF0EF11C77
:1010E000063071F77CC0143009F43FC0153009F0A8
:1010F0009FCE6EE171E08BE292E00E94DD0268E13A
:1011000071E085E292E00E94DD0262E171E09ECE34
:1011100066E671E08BE292E00E94DD0260E671E03B
:1011200085E292E00E94DD026AE571E08FCE64E51F
:1011300071E08BE292E00E94DD026EE471E085E2F4
:1011400092E00E94DD0268E471E080CE62E471E02A
:101150008BE292E00E94DD026CE371E085E292E0B6
:101160000E94DD0266E371E071CE60E371E08BE224
:1011700092E00E94DD026AE271E085E292E00E9464
:10118000DD0264E271E062CE8EEF93E00E94FF0226
:10119000082F882309F48DCE82E993E00E94090389
:1011A00080919F0380933A026091FE010E947B032D
:1011B00081CE82EF93E00E94FF02882309F49ACE49
:1011C00082E993E00E94090380919F038823D1F074
:1011D0008093FE018091FE01682F0E947B0365E0F1
:1011E00070E080E090E00E94AB02E0E0F0E0EF2BE6
:1011F00009F459CE0E94F600882309F453CE0E94C8
:10120000000050CE1093FE01E5CF8EEF93E00E94D8
:10121000EA02882321F0109338028AE077CE8BEF20
:1012200093E00E94EA02882381F082E080933802F2
:10123000109332021093330210933402109335024C
:1012400010933602109337026DCE88EF93E00E9420
:10125000EA02009138028823B9F0033059F48091F2
:10126000310290E0019666E070E00E94840A80936B
:10127000310258CE83E0809338026BE272E082E361
:1012800092E00E94DD024ECE85EF93E00E94EA02DA
:10129000882341F0043019F384E08093380265E23A
:1012A00072E0EDCF82EF93E00E94EA02882309F416
:1012B00039CE0530A1F285E0809338026FE172E00B
:1012C000DECF8AE4E82E83E0F82EC7010E94730384
:1012D000F4016585C7010E946203FCE0EF0EF11C7A
:1012E00020E1820E911C88E393E08815990569F747
:1012F00076CFC7010E946C03EFCE8F929F92AF9280
:10130000BF92CF92DF92EF92FF92CF93DF93EC01E7
:10131000688179818A819B816115710581059105BB
:1013200021F464E279ED8BE597E02DE133EF41E0C4
:1013300050E00E94210A49015A019B01AC01A7EA31
:10134000B1E40E94400A6B017C01ACEEB4EFA50150
:1013500094010E944E0AC60ED71EE81EF91EF7FE23
:1013600006C081E0C81AD108E10880E8F80AC882FE
:10137000D982EA82FB82C701B6019F77DF91CF91C4
:10138000FF90EF90DF90CF90BF90AF909F908F90A5
:1013900008958F929F92AF92BF92CF92DF92EF9279
:1013A000FF926091FF017091000280910102909183
:1013B0000202611571058105910521F464E279ED60
:1013C0008BE597E02DE133EF41E050E00E94210AE8
:1013D00049015A019B01AC01A7EAB1E40E94400A0D
:1013E0006B017C01ACEEB4EFA50194010E944E0AA2
:1013F000C60ED71EE81EF91EF7FE06C081E0C81A09
:10140000D108E10880E8F80AC092FF01D0920002FA
:10141000E0920102F0920202C701B6019F77FF90AD
:10142000EF90DF90CF90BF90AF909F908F900895F6
:101430006093FF0170930002809301029093020277
:101440000895052E97FB1EF400940E94380A57FD5C
:1014500007D00E94530A07FC03D04EF40C94380ABC
:1014600050954095309521953F4F4F4F5F4F0895D0
:1014700090958095709561957F4F8F4F9F4F089500
:101480000E94750AA59F900DB49F900DA49F800D9A
:10149000911D11240895B7FF0C94400A0E94400A40
:1014A000821B930B0895A1E21A2EAA1BBB1BFD0100
:1014B0000DC0AA1FBB1FEE1FFF1FA217B307E40733
:1014C000F50720F0A21BB30BE40BF50B661F771F8B
:1014D000881F991F1A9469F760957095809590956B
:1014E0009B01AC01BD01CF010895A29FB001B39F44
:1014F000C001A39F700D811D1124911DB29F700D1D
:10150000811D1124911D089597FB072E16F4009458
:1015100007D077FD09D00E94980A07FC05D03EF459
:10152000909581959F4F0895709561957F4F08958F
:10153000AA1BBB1B51E107C0AA1FBB1FA617B707F9
:1015400010F0A61BB70B881F991F5A95A9F7809515
:101550009095BC01CD010895EE0FFF1F0590F49109
:08156000E02D0994F894FFCF7F
:101568007273747576776667686970711A1B1C1DCB
:101578001E1F0101010101012E2F3001010128293F
:101588002A2B2C2D0101010101012E2F30310101DF
:1015980028292A2B2C2D0101010101012E2F303180
:1015A800320128292A2B2C2D0101010101012C2DA2
:1015B8002E2F3031050B28292A2B323334350101DF
:1015C8002C2D2E2F3031050B28292A2B0101010142
:1015D80001012E2F3031320128292A2B2C2D0012FF
:1015E8001D252A2F33373A3D3F42444647494B4C45
:1015F8004E4F5052535455565758595A5B5B5C5D81
:101608005E5F5F60616162636364646566666767A5
:10161800686869696A6A6B6B6C6C6C6D6D6E6E6F0D
:101628006F6F707070717172727273737374747497
:101638007575757676767677777778787878797934
:1016480079797A7A7A7B7B7B7B7C7C7C7C7C7D7DE0
:101658007D7D7E7E7E7E7F7F7F7F7F8080801E0176
:10166800000000000000002C018C00B9007901EA9C
:0616780000C800DC0000C8
:107E0000112484B714BE81FFF0D085E080938100F7
:107E100082E08093C00088E18093C10086E0809377
:107E2000C20080E18093C4008EE0C9D0259A86E02C
:107E300020E33CEF91E0309385002093840096BBD3
:107E4000B09BFECF1D9AA8958150A9F7CC24DD24C4
:107E500088248394B5E0AB2EA1E19A2EF3E0BF2EE7
:107E6000A2D0813461F49FD0082FAFD0023811F036
:107E7000013811F484E001C083E08DD089C08234E0
:107E800011F484E103C0853419F485E0A6D080C0E4
:107E9000853579F488D0E82EFF2485D0082F10E0AE
:107EA000102F00270E291F29000F111F8ED06801E7
:107EB0006FC0863521F484E090D080E0DECF843638
:107EC00009F040C070D06FD0082F6DD080E0C81688
:107ED00080E7D80618F4F601B7BEE895C0E0D1E017
:107EE00062D089930C17E1F7F0E0CF16F0E7DF06D8
:107EF00018F0F601B7BEE89568D007B600FCFDCFD4
:107F0000A601A0E0B1E02C9130E011968C91119780
:107F100090E0982F8827822B932B1296FA010C0160
:107F200087BEE89511244E5F5F4FF1E0A038BF0790
:107F300051F7F601A7BEE89507B600FCFDCF97BE46
:107F4000E89526C08437B1F42ED02DD0F82E2BD052
:107F50003CD0F601EF2C8F010F5F1F4F84911BD097
:107F6000EA94F801C1F70894C11CD11CFA94CF0C13
:107F7000D11C0EC0853739F428D08EE10CD085E9AC
:107F80000AD08FE07ACF813511F488E018D01DD067
:107F900080E101D065CF982F8091C00085FFFCCF94
:107FA0009093C60008958091C00087FFFCCF809118
:107FB000C00084FD01C0A8958091C6000895E0E648
:107FC000F0E098E1908380830895EDDF803219F02E
:107FD00088E0F5DFFFCF84E1DECF1F93182FE3DFCA
:107FE0001150E9F7F2DF1F91089580E0E8DFEE27F6
:047FF000FF270994CA
:027FFE00040479
:0400000300007E007B
:00000001FF
